:020000040800F2
:10000000D8090020890100080112000891090008A0
:100010004D0C000815050008C71D00080000000071
:10002000000000000000000000000000B5170008FC
:10003000CD060008000000002B160008C9180008B3
:10004000A3010008A3010008A3010008A301000800
:10005000A3010008A3010008A3010008A3010008F0
:10006000A3010008D1060008A3010008A3010008AD
:10007000A3010008A3010008A3010008A3010008D0
:10008000A3010008A3010008A3010008A3010008C0
:10009000A3010008A3010008A3010008A3010008B0
:1000A000A3010008A3010008A3010008A3010008A0
:1000B0002D190008A3010008A3010008A3010008EE
:1000C000A3010008A3010008A3010008A301000880
:1000D000A3010008C51A0008A30100084D1B000871
:1000E000A3010008A3010008A301000800F002F822
:1000F00000F03AF80AA090E8000C82448344AAF188
:100100000107DA4501D100F02FF8AFF2090EBAE885
:100110000F0013F0010F18BFFB1A43F0010318473B
:10012000F437000014380000103A24BF78C878C1B2
:10013000FAD8520724BF30C830C144BF04680C60ED
:10014000704700000023002400250026103A28BF35
:1001500078C1FBD8520728BF30C148BF0B60704739
:100160001FB51FBD10B510BD00F033F81146FFF7E5
:10017000F7FF02F055F900F051F803B4FFF7F2FF72
:1001800003BC01F022FE00000948804709480047EF
:10019000FEE7FEE7FEE7FEE7FEE7FEE7FEE7FEE737
:1001A000FEE7FEE704480549054A064B7047000094
:1001B000CD180008ED000008D8030020D809002061
:1001C000D8050020D8050020704770477047704759
:1001D0007047754600F028F8AE460500694653465C
:1001E00020F00700854618B020B5FFF7DBFFBDE81B
:1001F00020404FF000064FF000074FF000084FF08E
:10020000000B21F00701AC46ACE8C009ACE8C0091E
:10021000ACE8C009ACE8C0098D4670470446AFF3AE
:1002200000802046FFF7A9FF0048704778030020B0
:1002300021B1826842F00102826003E0826822F00C
:10024000010282607047000010B5044612488442E3
:1002500008D10121401501F019FA0021601501F0C3
:1002600015FA17E00D48844208D10121001501F06C
:100270000DFA0021201501F009FA0BE0084884422C
:1002800008D10121C80301F001FA00214FF4004018
:1002900001F0FCF910BD00000024014000280140DD
:1002A000003C0140014600208A6802F004020AB1C5
:1002B000012000E0002070470146C86C80B2704702
:1002C0000246002013680B400BB1012000E0002023
:1002D0007047014600208A6802F008020AB1012036
:1002E00000E000207047000030B5024600200023E7
:1002F00050680F4C20400D790C6844EA05242043D7
:10030000506090680B4C2040D1E902542C434D7949
:1003100044EA450420439060D06A20F470000C7CCD
:10032000641EE4B2234340EA0350D06230BD0000B3
:10033000FFFEF0FFFDF7F1FFF0B504460D4600208B
:100340000021092D11DDE068A5F10A0606EB46073C
:10035000072606FA07F18843A5F10A0606EB4606CA
:1003600003FA06F10843E0600CE0206905EB45075D
:10037000072606FA07F1884305EB450603FA06F15E
:1003800008432061072A0FDA606B561E06EB8607CA
:100390001F2606FA07F18843561E06EB860605FA65
:1003A00006F10843606322E00D2A0FDA206BD61FA6
:1003B00006EB86071F2606FA07F18843D61F06EBD1
:1003C000860605FA06F10843206310E0E06AA2F110
:1003D0000D0606EB86071F2606FA07F18843A2F1F1
:1003E0000D0606EB860605FA06F10843E062F0BD4D
:1003F000816841F008018160704721B1826842F450
:10040000A002826003E0826822F4A002826070474A
:10041000816841F0040181607047000000B585B03B
:100420000121480201F022F90121480201F02EF9D0
:1004300000214FF4007001F029F91648FFF704FF7E
:10044000002000908DF804008DF805004FF4602026
:1004500002900020039001208DF8100069460D489D
:10046000FFF742FF01210B48FFF7E2FE0948FFF7C3
:10047000BFFF00BF0748FFF72CFF0028FAD105484F
:10048000FFF7C6FF00BF0348FFF70CFF0028FAD1B3
:1004900005B000BD0024014070B50446264614E0B6
:1004A000002510E000200C4908604FF4FA7001F0BC
:1004B000D9FD01200949C1F8A0014FF4FA7001F0FB
:1004C000D1FD681C85B2C82DECDB3000A6F101011E
:1004D0008EB2E5D170BD0000A00121420000214292
:1004E00008B50121042001F0C1F810208DF80300A7
:1004F0000001ADF8000003208DF8020069460448B1
:1005000000F094F94FF48071014800F023FA08BD1F
:100510000008014000BFFEE738B504460121042071
:1005200001F0A4F8012C11D110208DF80300C001B6
:10053000ADF8000003208DF8020069460A4800F07B
:1005400075F9E102084800F007FA0BE0022C09D126
:1005500004208DF803004002ADF80000694602480F
:1005600000F064F938BD00000008014070B50024B7
:10057000002504E0002052494855681CC5B2052DED
:10058000F8DB322001F048FD0120FFF7C5FF002015
:100590004C490860122001F03FFD01204A49C1F892
:1005A000AC01282001F05EFD0120464908600220D0
:1005B000FFF7B2FF4448D0F82C0100287DD104E0B9
:1005C000601CC4B2012001F04DFD3E488038006837
:1005D00008B9642CF4DB642C01DD002070BD00241C
:1005E00004E0601CC4B2012001F03CFD35488038B5
:1005F000006808B1642CF4DB642C01DD0020EDE719
:10060000002400253AE0002634E004E00024641CC5
:10061000012001F027FD2B488038006808B13C2CF0
:10062000F4DB3C2C01DD0020D8E7002404E0601C52
:10063000C4B2012001F016FD22488038006808B9D4
:10064000642CF4DB642C01DD0020C7E7282001F0D6
:1006500009FD1B48405D4006000E194948551948E0
:100660008038006820B10846405D40F001004855E0
:10067000701CC6B2082EC8DB681CC5B2052DC2DBD3
:100680000F4800780E49497808440D498978084494
:100690000B49C97808440A49097988420BD00025DA
:1006A00005E00AE0002006494855681CC5B2052D42
:1006B000F8DB002092E7042090E700208EE700009E
:1006C00028000020AC0121420000214270470000B8
:1006D00010B5082000F02CF8F0B1082000F022F846
:1006E0004FF08040808CB0F5617F11DD4FF080408D
:1006F000808C0A490A4A127841F82200084800789A
:10070000401C0749087000204FF08041888403E0B6
:1007100000204FF08041888410BD00006000002060
:100720002D000020014908607047000014040140BA
:10073000014600200022074B1B6803EA0102054B1B
:1007400014331B680B4013B10AB1012000E00020F4
:100750007047000000040140002123498279002AEB
:100760003AD00A46126803689A430B461A600A1D7B
:10077000126803689A430B1D1A60027911440A68D3
:1007800003681A430A60184A0832126803689A43D9
:10079000154B08331A601A1D126803689A43124BEE
:1007A0000C331A604279102A0ED11A1F126803689E
:1007B0001A430D4B08331A601A1D126803681A4356
:1007C000094B0C331A600DE00749427911440A685D
:1007D00003681A430A6005E0027911440A68036855
:1007E0009A430A60704700000004014030B50022BF
:1007F0008B071C0F0F2303FA04F20B4B8C1053F8DA
:1008000024309343084C8D1044F8253023468C1037
:1008100053F824308C07240F00FA04F42343024CCD
:100820008D1044F8253030BD080001402DE9F0411D
:10083000024600250026002000230024002791F80E
:1008400003C00CF00F0591F803C00CF0100CBCF1C4
:10085000000F03D091F802C04CEA050591F800C0E2
:10086000BCF1000F31D0146800202BE04FF0010CD8
:100870000CFA00F3B1F800C00CEA03069E4220D146
:1008800083004FF00F0C0CFA03F7BC4305FA03FC8E
:100890004CEA040491F803C0BCF1280F06D14FF0D4
:1008A000010C0CFA00FCC2F814C00AE091F803C075
:1008B000BCF1480F05D14FF0010C0CFA00FCC2F856
:1008C00010C0401C0828D1D31460B1F800C0BCF19E
:1008D000FF0F34DD546800202EE000F1080C4FF0CB
:1008E000010808FA0CF3B1F800C00CEA03069E42B6
:1008F00021D183004FF00F0C0CFA03F7BC4305FA2B
:1009000003FC4CEA040491F803C0BCF1280F05D1A4
:1009100000F1080C08FA0CF8C2F8148091F803C032
:10092000BCF1480F07D100F1080C4FF0010808FA9C
:100930000CF8C2F81080401C0828CED35460BDE8E3
:10094000F08102460020D3680B400BB1012000E08B
:1009500000207047416170470161704710B504463F
:100960000723012221460948FFF7E6FC0121074839
:10097000FFF743FD00BF02210448FFF7A1FC002858
:10098000F9D00248FFF798FC10BD00000024014098
:1009900000BFFEE738B50446012C15D10121042023
:1009A00000F064FE10208DF80300C020ADF80000B8
:1009B00003208DF8020069461248FFF737FFC02177
:1009C0001048FFF7C9FF1BE0022C0DD110208DF855
:1009D00003008020ADF8000003208DF80200694676
:1009E0000848FFF723FF0BE0032C09D104208DF802
:1009F00003008020ADF8000069460248FFF716FFAB
:100A000038BD000000080140082100220E4B1A608A
:100A100014E000F0800222B101220B4B1B1D1A6072
:100A200003E00022084B1B1D1A600122064B1A60CE
:100A30000022064BC3F898214206100E0A00A1F1CD
:100A40000103D9B2E5D1704798012142000021424B
:100A500010B50120094908600949C1F89C01052029
:100A600001F000FB00200549091D0860052001F088
:100A7000F9FA00200249C1F8980110BD98012142FD
:100A80000000214210B501200849086000200849F3
:100A9000C1F89C01052001F0E5FA01200349091D78
:100AA0000860052001F0DEFA10BD00009801214227
:100AB0000000214210B500200C49086001200C49BB
:100AC000C1F89C010320FFF765FF01200849C1F828
:100AD00098010846D0F81C0108B9FFF7D3FF0020A1
:100AE000024908600220FFF755FF10BD980121421E
:100AF0000000214208B50121082000F0B7FD2820A0
:100B00008DF803004FF48050ADF8000069460248AC
:100B1000FFF78CFE08BD0000000C014008B5012164
:100B2000082000F0A3FD48208DF803000120ADF857
:100B3000000069460648FFF779FE48208DF803005B
:100B40000220ADF8000069460148FFF76FFE08BDBE
:100B5000000C014010B500241348006818B1124879
:100B6000001D0068F0B9142001F056FA0E48006824
:100B700018B10D48001D0068A0B90B48006808B9FD
:100B8000012406E00848001D006808B9022400E0BE
:100B9000002400BF044800680449D1F8041108404B
:100BA0000028F7D0204610BD00812142008021425C
:100BB00008B50121102000F059FD10208DF8030028
:100BC0004FF46040ADF8000003208DF80200694644
:100BD0000448FFF72BFE4FF460410248FFF7BCFECC
:100BE00008BD00000010014070B50024002508E099
:100BF0000120FFF7B3FE0444052001F00DFA681C44
:100C0000C5B20A2DF4DB0A20B4FBF0F4B4F57A6F18
:100C100001D94FF47A642820B4FBF0F0C0F16400ED
:100C2000C0B270BD08B50121042000F01FFD0220F4
:100C3000ADF8000000208DF8030069460248FFF778
:100C4000F5FDFFF7EBFB08BD0008014000BFFEE724
:100C500010B50023774C2370774B1B78002B72DD87
:100C6000754B1B785A2B70DD012112E0734B53F842
:100C7000213041F65834A3420AD9704B53F8213041
:100C800042F21C54A34203D222236A4C237005E093
:100C9000491C694B1B78283B8B42E7DC00BF654B46
:100CA0001B78222B4ED1644B1B78273B8B4249DDAE
:100CB000002042E000223CE08B18604C54F82330C6
:100CC000B3F5FA6F19D98B1854F8233040F6C414D1
:100CD000A34212D25A4B1B5C03F0FE03584C235420
:100CE00023461B5C43F001032354082A20D02346EB
:100CF0001B5C5B061B0E23541AE08B184F4C54F8F8
:100D00002330B3F57A7F13D98B1854F8233040F28F
:100D1000E244A3420CD24A4B1B5C03F0FE03484C56
:100D20002354082A04D023461B5C5B061B0E235465
:100D3000521C082AC0DD1031401C0328BADB0023F6
:100D40003D4C237074E070E0FFE73B4B1B78282B91
:100D50006EDD012111E0394B53F8213042F6E06499
:100D6000A34209D9354B53F82130B3F57A5F03D24A
:100D70002123304C237005E0491C2F4B1B78203B6E
:100D80008B42E8DC00BF2B4B1B78212B50D12A4B28
:100D90001B78203B8B424BDD002040E000223AE0F4
:100DA0008B18264C54F82330B3F5FA6F18D98B18EA
:100DB00054F8233040F62824A34211D2204B1B5C68
:100DC00003F07F031E4C235423461B5C43F0800337
:100DD0002354082A1ED023461B5C5B10235419E0C1
:100DE0008B18164C54F82330B3F57A7F12D98B1830
:100DF00054F8233040F2E244A3420BD2104B1B5C68
:100E000003F07F030E4C2354082A03D023461B5CB7
:100E10005B102354521C082AC2DD0831401C0328F1
:100E2000BCDB0023044C237002E00023014C237040
:100E300010BD00002E0000202D00002060000020CA
:100E40002F00002070B5044600250AE004F00100E0
:100E500010B100F07DF901E000F0A6F96410681C03
:100E6000C5B2082DF2DB70BD70B5044600250BE05D
:100E700004F0800010B100F06BF901E000F094F98B
:100E80006006040E681CC5B2082DF1DB70BD0000C1
:100E90002DE9F04105460E46C5F3072705F0FF088A
:100EA00000240EE001201A490860082001F0DAF859
:100EB00000201849C1F88801112001F0D3F8601C06
:100EC00084B2B4F5AB7FEDDB00240EE000201049C6
:100ED0000860082001F0C6F800200E49C1F888011A
:100EE000112001F0BFF8601C84B2AB2CEEDB404651
:100EF000FFF7A8FF3846FFF7A5FF3046FFF7A2FF30
:100F0000F143C8B2FFF79EFF00F04EF9BDE8F08153
:100F100088012142000021422DE9FC4105460E4690
:100F200017468DF80050E843C0B28DF801008DF8E7
:100F30000260F043C0B28DF803008DF80470F843EE
:100F4000C0B28DF8050000F0BDF89DF80000FFF775
:100F50008BFF9DF80100FFF787FF9DF80200FFF768
:100F600083FF9DF80300FFF77FFF9DF80400FFF764
:100F70007BFF9DF80500FFF777FF00240EE00120BE
:100F800032490860082001F06DF800203049C1F8AE
:100F90008801112001F066F8601C84B2162CEEDB8B
:100FA00000240EE0002029490860082001F05AF8CA
:100FB00000202749C1F88801112001F053F8601C76
:100FC00084B2C82CEEDB00F07DF89DF80000FFF73E
:100FD0004BFF9DF80100FFF747FF9DF80200FFF768
:100FE00043FF9DF80300FFF73FFF9DF80400FFF764
:100FF0003BFF9DF80500FFF737FF00240EE00120BE
:1010000012490860082001F02DF800201049C1F8AD
:101010008801112001F026F8601C84B2162CEEDB4A
:1010200000240EE0002009490860082001F01AF8A9
:1010300000200749C1F88801112001F013F8601C55
:1010400084B2C82CEEDBBDE8FC810000880121429F
:10105000000021421FB50121042000F007FB4820B9
:101060008DF80F000820ADF80C0003A91448FFF715
:10107000DDFB0121084600F0F9FA03210020FFF70B
:10108000B5FB00208DF808000C208DF80900012028
:101090008DF80A000820019001A8FFF75DFB0120F0
:1010A0008DF8010002208DF8020001208DF8030068
:1010B00009208DF80000684600F0A4F81FBD00006C
:1010C0000008014010B500240EE00120114908601D
:1010D000082000F0C7FF00200F49C1F88801112047
:1010E00000F0C0FF601CC4B2AC2CEEDB00240EE0AC
:1010F000002008490860082000F0B4FF00200649DD
:10110000C1F88801112000F0ADFF601CC4B2AC2C06
:10111000EEDB10BD880121420000214208B501210B
:10112000042000F0A3FA0420ADF8000010208DF890
:10113000030003208DF8020069460448FFF776FBA0
:1011400004210248FFF706FC08BD0000000801402A
:1011500010B500240EE0012011490860082000F0BD
:1011600081FF00200F49C1F88801112000F07AFFAB
:10117000601CC4B2162CEEDB00240EE000200849EF
:101180000860082000F06EFF00200649C1F88801C1
:10119000112000F067FF601CC4B2402CEEDB10BDD4
:1011A000880121420000214210B500240EE00120F8
:1011B00011490860082000F055FF00200F49C1F8D0
:1011C0008801112000F04EFF601CC4B2162CEEDB2B
:1011D00000240EE0002008490860082000F042FFCB
:1011E00000200649C1F88801112000F03BFF601C77
:1011F000C4B2152CEEDB10BD880121420000214253
:101200007047000070B5002100230F22C47804B39A
:10121000154C246804F4E064C4F5E064210AC1F1CB
:101220000403CA40447804FA03F18478144021434B
:1012300009010E4C0678A155047804F01F0501241D
:10124000AC4005786D11AD0005F1E025C5F8004111
:1012500009E0047804F01F050124AC40044D067831
:10126000761145F8264070BD0CED00E000E400E08A
:1012700080E100E002490143024A1160704700002A
:101280000000FA050CED00E07FB504460D464FF472
:101290007A7094FBF0F03030C0B28DF80800642012
:1012A00094FBF0F00A2190FBF1F201FB12003030C8
:1012B000C0B28DF809002E208DF80A000A2094FB98
:1012C000F0F100FB11403030C0B28DF80B0064200B
:1012D00094FBF0F100FB11400A2190FBF1F030305B
:1012E000C0B28DF80C0000208DF80D000A2095FB8F
:1012F000F0F03030C0B28DF800000A2095FBF0F11C
:1013000000FB11503030C0B28DF801002E208DF856
:10131000020030208DF803008DF8040000208DF8C5
:1013200005000522022100F03BF8062203210020DF
:1013300000F036F802220421002000F031F80322E8
:101340000521002000F02CF811A20021022000F05D
:10135000B5F811A20021032000F0B0F802AA05217F
:10136000022000F0ABF86A460521032000F0A6F841
:1013700004220521022000F013F843220C21022050
:1013800000F054F825220C21032000F04FF87FBD17
:101390002074703A000000002072683A00000000DB
:1013A0002DE9F04705460C4616464FF00008200789
:1013B000040E6806050EC14630E005F1B001C8B262
:1013C00000F007F92746E11704EB117109111031FC
:1013D000C8B200F0FEF8E11704EB11710911A4EB9B
:1013E0000111C8B200F0F5F84FF0000A0DE008EB6B
:1013F00046110D4A505C00F002F908F1010000F0BE
:10140000FF080AF1010000F0FF0ABAF1100FEEDB4D
:10141000681CC5B209F1010000F0FF09B9F1020F23
:10142000CBDBBDE8F0870000183400082DE9F04759
:1014300005460C4616464FF00008E006040E680606
:10144000050EC14632E005F1B001C8B200F0C1F8A6
:101450002746E11704EB117109111031C8B200F0F1
:10146000B8F8E11704EB11710911A4EB0111C8B22E
:1014700000F0AFF84FF0000A0FE008EB0611A1F5FD
:1014800000710D4A505C00F0BAF808F1010000F05C
:10149000FF080AF1010000F0FF0ABAF1080FECDBC7
:1014A000681CC5B209F1010000F0FF09B9F1020F93
:1014B000C9DBBDE8F0870000182E00082DE9F041D7
:1014C00007460E461446002509E028466B1CDDB28F
:1014D000225CA819401EC1B23846FFF7A7FF605D25
:1014E0000028F2D1BDE8F08170B5002415E004F1C8
:1014F000B001C8B200F06DF8102000F06AF80020CA
:1015000000F067F8002504E0002000F078F8681C7F
:10151000C5B2802DF8DB601CC4B2082CE7DB70BDBF
:1015200010B5642000F078FDAE2000F052F80020E5
:1015300000F04FF8102000F04CF8D52000F049F8EA
:10154000802000F046F8A82000F043F83F2000F08B
:1015500040F8D32000F03DF8002000F03AF8B02029
:1015600000F037F8402000F034F88D2000F031F81A
:10157000142000F02EF8A12000F02BF8C82000F075
:1015800028F8DA2000F025F8122000F022F8812057
:1015900000F01FF8FF2000F01CF8D92000F019F827
:1015A000F12000F016F8DB2000F013F8302000F0F6
:1015B00010F8202000F00DF8002000F00AF8A42018
:1015C00000F007F8A62000F004F8AF2000F001F8C2
:1015D00010BD10B50446FFF73BFA7820FFF714FA68
:1015E000FFF768FA0020FFF70FFAFFF763FA2046CB
:1015F000FFF70AFAFFF75EFAFFF744FA10BD10B5DD
:101600000446FFF725FA7820FFF7FEF9FFF752FAB4
:101610004020FFF7F9F9FFF74DFA2046FFF7F4F9FC
:10162000FFF748FAFFF72EFA10BD704729B1064AB6
:10163000D2690243044BDA6104E0034AD26982436F
:10164000014BDA61704700000010024029B1064AE0
:1016500012690243044B1A6104E0034A126982438F
:10166000014B1A61704700000010024029B1064A80
:1016700092690243044B9A6104E0034A92698243EF
:10168000014B9A61704700000010024029B1064AE0
:10169000D2680243044BDA6004E0034AD268824312
:1016A000014BDA60704700000010024030B50021A5
:1016B0000022002400232D4D6D6805F00C0121B19E
:1016C000042905D0082923D105E0294D056022E031
:1016D000274D05601FE0254D6D6805F47012234D00
:1016E0006D6805F48034022505EB92421CB9214D4A
:1016F000554305600BE01D4D6D6805F400351DB1C7
:101700001C4D5543056002E0194D5543056002E04C
:10171000174D056000BF00BF144D6D6805F0F00166
:101720000909154D6B5C0568DD4045600F4D6D681E
:1017300005F4E061090A104D6B5C4568DD40856089
:101740000A4D6D6805F46051C90A0B4D6B5C456824
:10175000DD40C560054D6D6805F44041890B074DBE
:101760006B5CC568B5FBF3F5056130BD0010024048
:1017700000127A0000093D0014000020240000201F
:1017800008B501210820FFF771FF10208DF8030034
:101790004002ADF8000003208DF8020069460448BD
:1017A000FFF744F84FF400510148FFF7D3F808BDA4
:1017B000000C0140704710B500F002F810BD0000A9
:1017C0000CB50020019000903348006840F4803050
:1017D0003149086000BF3048006800F400300090D4
:1017E0000198401C0190009818B90198B0F5A06FBD
:1017F000F1D12948006800F4003010B101200090B8
:1018000001E0002000900098012843D1234800689F
:1018100040F01000214908600846006820F00300ED
:1018200008600846006840F0020008601A484068F6
:10183000194948600846406848600846406840F4D6
:10184000806048600846406820F47C104860084684
:10185000406840F4E81048600846006840F0807036
:10186000086000BF0C48006800F000700028F9D044
:101870000948406820F0030007494860084640686E
:1018800040F00200486000BF0348406800F00C00D0
:101890000828F9D10CBD00000010024000200240D1
:1018A000042808D14FF0E021096941F004014FF00C
:1018B000E022116107E04FF0E021096921F0040105
:1018C0004FF0E022116170477047000010B51348D7
:1018D000006840F00100114908600846406810495E
:1018E00008400E494860084600680E4908400B4908
:1018F00008600846006820F48020086008464068B8
:1019000020F4FE0048604FF41F008860FFF753FF8B
:101910004FF000600449086010BD00000010024054
:101920000000FFF8FFFFF6FE08ED00E010B5012112
:10193000880700F05BF8A0B10121880700F047F8A4
:1019400008480078401C0749087007480078801C48
:101950000549087005480078142802DA0020034978
:10196000087010BD33000020340000202D0000203E
:101970001FB501210846FFF759FE44F61F60ADF878
:1019800008004720ADF804000020ADF80A00ADF8CB
:10199000060001A94FF0804000F042F801221146F4
:1019A000900700F034F81C208DF8000000208DF81E
:1019B000010003208DF8020001208DF80300684625
:1019C000FFF720FC0121880700F004F81FBDCA437F
:1019D0000282704721B1028842F00102028004E0D5
:1019E00002884FF6FE731A400280704730B50246F7
:1019F000002000230024158A05EA0103958905EAE1
:101A0000010413B10CB1012000E0002030BD1AB177
:101A100083890B43838102E083898B4383817047F1
:101A2000002202881D4B98420ED01D4B98420BD0CD
:101A3000B0F1804F08D01B4B984205D01A4B98420A
:101A400002D01A4B984204D14FF68F731A404B883C
:101A50001A43174B984207D0164B984204D04FF6C2
:101A6000FF431A40CB881A4302808B8883850B88FA
:101A700003850A4B98420BD0094B984208D00E4B75
:101A8000984205D00D4B984202D00D4B984201D19F
:101A90000B7A03860123838270470000002C0140EB
:101AA000003401400004004000080040000C0040E9
:101AB000001000400014004000400140004401407C
:101AC0000048014010B540F225511D4800F0B7F81C
:101AD00010B31B4800F06EF9C4B21A48008800F435
:101AE0000040C8B91748008800F4804060B10A2C53
:101AF00003D000201349088020E01248008840F4F9
:101B000000401049088019E00D2C06D10D480088CE
:101B100040F480400B49088010E00A480088C0F378
:101B20000D0009490C5407480088401C05490880ED
:101B300008460088C72801DD0020088010BD00008D
:101B40000038014058000020AD02002010B540F2DE
:101B50002551064800F073F830B1044800F02AF926
:101B6000C4B2204600F0C4FF10BD00000048004091
:101B700021B1828942F40052828104E082894DF6CB
:101B8000FF731A408281704710B504462048844292
:101B900009D101218803FFF779FD00214FF480402E
:101BA000FFF774FD32E01B48844209D1012148044B
:101BB000FFF74CFD00214FF40030FFF747FD25E013
:101BC0001548844209D101218804FFF73FFD002117
:101BD0004FF48020FFF73AFD18E01048844209D105
:101BE0000121C804FFF732FD00214FF40020FFF768
:101BF0002DFD0BE00A48844208D101210805FFF7BA
:101C000025FD00214FF48010FFF720FD10BD0000DE
:101C1000003801400044004000480040004C0040B3
:101C20000050004002460020B1F5007F00D100BF07
:101C300013880B400BB1012000E00020704770B505
:101C40000246002400230025002040F66A16B14217
:101C500000D100BFC1F3421501F01F03012606FAAF
:101C600003F3012D02D19689334006E0022D02D103
:101C7000168A334001E0968A33400C12012606FA98
:101C800004F41688344013B10CB1012000E00020A8
:101C900070BDF0B50346002400260025002040F664
:101CA0006A17B94200D100BF1846C1F3421401F0CF
:101CB0001F06012707FA06F5012C01D10C3004E0BC
:101CC000022C01D1103000E014301AB107682F4304
:101CD000076002E00768AF430760F0BD2DE9F047F9
:101CE00086B005460E460024A24600BFA146002746
:101CF000B08900B100BF2F462C8A4CF6FF7004401B
:101D0000F08804432C82AC894EF6F3100440B0886E
:101D100031890843718908430443AC81AC8A4FF68A
:101D2000FF400440B0890443AC8201A8FFF7BEFC29
:101D30001F48874202D1DDF810A001E0DDF80CA0B9
:101D4000A88900F4004040B10AEBCA0000EB0A1079
:101D500031684900B0FBF1F807E00AEBCA0000EB7C
:101D60000A1031688900B0FBF1F86420B8FBF0F08C
:101D700004012009642101FB1089A88900F40040B6
:101D800040B1322000EBC900B0FBF1F000F00700D9
:101D9000044308E0322000EB09106421B0FBF1F0AD
:101DA00000F00F0004432C8106B0BDE8F08700006E
:101DB0000038014001468888C0F308007047C1F32D
:101DC00008028280704700BFFEE7014600BF7047EF
:101DD00010B5C821012000F069FD3221022000F079
:101DE00065FD234801880A2000F060FD2148018834
:101DF0000B2000F05BFD204801880C2000F056FD10
:101E00001E4801880D2000F051FD0121652000F0E1
:101E1000B5FC06221A49672000F00EFD3221682029
:101E200000F044FD0021692000F0DAFC4FF480410D
:101E30001448FEF786FD08B9012000E000200446A2
:101E400021466A2000F09AFC4FF400410D48FEF74D
:101E500078FD08B9012000E00020044621466B20EF
:101E600000F08CFC00216C2000F088FC10BD00000C
:101E70003A0000203C0000203E00002040000020EE
:101E80002F000020001001400146002008780002C9
:101E90004A78104300028A7810430002CA7810433F
:101EA000704700002DE9F05F04463349E01C11F84B
:101EB0000080B8F10F0F5AD2DFE808F0080B0E11BE
:101EC0001C2024594A59595959594D0000F08CFA8F
:101ED0004EE000F067FD4BE000F07EFA48E0264956
:101EE000A01D085C2549087000220321084600F067
:101EF0003BFF3DE001202249087039E001202149E3
:101F0000087035E01C49601D095C1B4A201D105CEF
:101F100041EA0027002518E0A01D2844801C16492E
:101F2000085C4FF6FF7101EA0026A01D2844C01C82
:101F30001149085C304486B22144891D481900F0DB
:101F400023F88346301D284485B2BD42E4DB0FE010
:101F5000FFF73EFF0CE00849A01D11F80090E01DBE
:101F600011F800A05146484600F06CFE00E000BFAA
:101F700000BFBDE8F09F0000400200204F0000209D
:101F80004D0000204E0000202DE9F0470446267841
:101F900094F80180A0784FF6FF7101EA0025E078FF
:101FA000284485B2304600F0FFF90746084800EBA8
:101FB00047004078404502D00020BDE8F0872A461F
:101FC000211D304600F074F881464846F5E70000D0
:101FD000F838000810B56FF00400FFF761FC0A48FC
:101FE00000680A49B0FBF1F009490870084600781A
:101FF00000EB4001C1EBC0104FF6FF7101EAC000D9
:102000000449088010BD00000000002000127A0082
:102010005A0000205C0000200146114A12884A4301
:102020004FF0E0235A6100229A611A46126942F089
:1020300001021A6100BF4FF0E022106900F00102B6
:102040001AB100F48032002AF5D04FF0E022126974
:1020500022F001024FF0E0231A6100229A617047DA
:102060005C0000200146114A12784A434FF0E023F9
:102070005A6100229A611A46126942F001021A61FD
:1020800000BF4FF0E022106900F001021AB100F425
:102090008032002AF5D04FF0E022126922F00102CE
:1020A0004FF0E0231A6100229A6170475A00002025
:1020B0002DE9F04105460E461746662D34D00CDC5E
:1020C0000C2D1FD004DC0A2D10D00B2D4AD113E0AB
:1020D0000D2D1DD0652D45D120E0672D2AD06A2D0C
:1020E0002ED06B2D32D06C2D3CD135E039463046A8
:1020F00000F092F8044636E03946304600F0BCF86D
:10210000044630E03946304600F06EF804462AE0D6
:102110003946304600F098F8044624E03946304607
:1021200000F0FEF804461EE03946304600F0CCF8D8
:10213000044618E03946304600F0B6F8044612E08E
:102140003946304600F032F804460CE03946304655
:1021500000F00EF8044606E03946304600F0F8F884
:10216000044600E000BF00BF2046BDE8F08100004B
:102170002DE9F04106460F463946304600F0D2FBC5
:1021800005461DB901200849086002E00020064903
:10219000086029466B2000F0F1FA0446012C01D1B9
:1021A000BDE8F0810020FBE7BC0122422DE9F041AF
:1021B00006460F463946304600F0B4FB05461DB9C9
:1021C00001200849086002E000200649086029460D
:1021D0006A2000F0D3FA0446012C01D1BDE8F08159
:1021E0000020FBE7B80122422DE9F04105460E46EA
:1021F0003146284600F099FB044606490C802146EA
:102200000C2000F053FB0746012F01D1BDE8F081FF
:102210000020FBE73E0000202DE9F04105460E4678
:102220003146284600F081FB044606490C802146D1
:102230000A2000F03BFB0746012F01D1BDE8F081E9
:102240000020FBE73A0000202DE9F04105460E464C
:102250003146284600F069FB044606490C802146B9
:102260000D2000F023FB0746012F01D1BDE8F081CE
:102270000020FBE7400000202DE9F04105460E4616
:102280003146284600F051FB044606490C802146A1
:102290000B2000F00BFB0746012F01D1BDE8F081B8
:1022A0000020FBE73C00002070B505460E460422E6
:1022B0000449672000F0C0FA0446012C00D170BD2B
:1022C0000020FCE72F00002070B504460E46207861
:1022D0001249087060784870A0788870E0782128EA
:1022E0000AD10A461378527803EB022290B20A46CA
:1022F0009178FEF7CDFD05E0084B9A78597818786B
:10230000FEF70AFE32462146662000F095FA0546A1
:10231000012D00D170BD0020FCE700002F0000203F
:102320002DE9F04105460E463146284600F0FAFAFE
:102330000446064804602146652000F01FFA07465F
:10234000012F01D1BDE8F0810020FBE7B4812142DB
:102350002DE9F04106460F463946304600F0E2FAD4
:1023600005461DB900200849087002E00120064911
:10237000087029466C2000F001FA0446012C01D1B6
:10238000BDE8F0810020FBE73800002030B50246B0
:102390000020002305E012F8015B2C18E0B25C1C61
:1023A000A3B28B42F7DB30BD70B5054600F012F8E2
:1023B0000646002407E0064810F81400A84200D1A1
:1023C00003E0601CC4B2B442F5DB00BF204670BD20
:1023D000F83800080E20704710B50024224603216B
:1023E000022000F0C1FC10BD10B500240B4800789D
:1023F00040B90021204600F055FBC4B20120074936
:10240000087004E00121204600F04CFBC4B22246D3
:102410000321002000F0A8FC10BD000050000020A7
:10242000002714240026FFF7D5FDA001FEF722FFA8
:10243000FFF79EFA4FF4165000F096FBFEF7B8FB3C
:10244000FEF76CFBFEF74CF8FFF79AF90120FEF758
:10245000A1FAFFF765F8FEF74DFBFEF7E3FBFEF789
:102460005DFEFEF7F7FDFFF73FF800F0D5FB5DE1FD
:10247000FEF770FB0746012F02D0022F1DD108E0A6
:10248000AB48007808B9012000E00020A849087096
:1024900013E0FEF7DDFBA74909780906A64A127882
:1024A00041EA0241A44A527841EA0221A24A9278C2
:1024B00041EA020000F07CFC00BF00BF00F03CFAE3
:1024C000052830D2DFE800F0031323272B009B48B8
:1024D00000780D280ADB9A48006808B9012000E05E
:1024E0000020974908600020944908701CE0934838
:1024F000007821280ADB9248006808B9012000E032
:1025000000208F49086000208C4908700CE00120F1
:102510008B49086008E000208949086004E0002039
:102520008749086000BF00BF00BF814801786C2068
:1025300000F024F98348006808B9012000E0002079
:102540000146692000F04CF94FF480417E48FEF7C7
:10255000F8F908B9012000E00020804641466A20D1
:1025600000F00CF94FF400417748FEF7EAF908B99A
:10257000012000E00020804641466B2000F0FEF87C
:102580004FF400517148FEF7DCF980464146652062
:1025900000F0F4F86E480078192190FBF1F201FB8D
:1025A000120030B9FEF720FB05462946682000F0EE
:1025B0007DF967480078782823DBFDF7D7FF0020F6
:1025C000634908700126634AD278624B9B7803EB1B
:1025D000C30C0CEB031302EB83005E4A1178FEF789
:1025E00053FE5C48C0785B4A927802EB820200EBB3
:1025F0004201012000F05AF956480178022000F00B
:1026000055F900F023FB4A48007828B152A2002176
:102610000846FEF753FF89E051A200210846FEF765
:102620004DFF0A2094FBF0F0303000F0FF084246E6
:102630000D210020FEF7FAFE0A2094FBF0F100FBCA
:102640001140303000F0FF0842460E210020FEF716
:10265000EDFE3C480068E8B31424322D04DA012072
:1026600038498431086003E000203649843108602D
:10267000384800783C490988884205DB35480078AD
:102680003A490988884204DD00202D490831086054
:1026900003E001202A49083108602E48C0782D49FE
:1026A000897801EB810100EB4100314909888842BA
:1026B0000BDB2848C0782749897801EB810100EBC2
:1026C00041002C490988884205DD00201C49091D6C
:1026D000086004E017E001201949091D08604FF463
:1026E00080411948FEF72DF980464FF40041164805
:1026F000FEF727F948EA0008B8F1000F16D10120CB
:10270000FDF7CAFE12E0002C05DD012E0ED1601E81
:10271000C4B200260AE000200A4984310860012082
:102720001549C1F8B801064908310860A0E6000063
:10273000380000202E0000202F0000203300002051
:10274000B40122423081214200100140000C0140BE
:10275000340000202800002077696669000000002E
:102760006175746F00000000400000203E000020F2
:102770003C0000203A0000200000224270B50446D0
:102780000D46002615480078012800D170BD21466D
:10279000304600F087F906460121304600F082F904
:1027A00006460021304600F07DF9064601213046FC
:1027B00000F078F906462DB90021304600F072F994
:1027C000064604E00121304600F06CF90646324628
:1027D0000321072000F0C8FA0120D7E74C000020B1
:1027E00070B504460E46002512480078012800D135
:1027F00070BD2146284600F055F9054604212846BB
:1028000000F050F905460021284600F04BF9054636
:102810000121284600F046F905463146284600F0D9
:1028200041F905462A460321072000F09DFA0120C0
:10283000DEE700004C0000202DE9F0410646884606
:102840001446002718480078012801D1BDE8F0811E
:102850003146384600F026F907460321384600F095
:1028600021F907462546E01704EB1060C0F3072165
:10287000384600F017F90746E01704EB1060001225
:10288000A4EB0020C1B2384600F00CF907462246FE
:102890004146384600F0F2F807463A460321072041
:1028A00000F062FA0120D1E74C00002070B5054627
:1028B0000C4600261A480078012800D170BD294630
:1028C000304600F0EFF806460221304600F0EAF804
:1028D00006460021304600F0E5F806460421304661
:1028E00000F0E0F80646210E304600F0DBF8064620
:1028F000C4F30741304600F0D5F80646C4F307217B
:10290000304600F0CFF80646E1B2304600F0CAF893
:10291000064632460321072000F026FA0120CDE7C3
:102920004C00002002461078704710B503460C4654
:102930001846FFF7A9FA10BD01480078704700005B
:102940004F000020F0B505460E4613462A46344691
:1029500005B10EB90020F0BDA24202D9E0189042A4
:1029600008D2002103E0605C5054481C81B29942B7
:10297000F9DB07E0194603E0481E275C175481B2D3
:102980000029F9DC2846E6E70146002209B90020C3
:102990007047002200E0521C11F8013B002BFAD1D5
:1029A0001046F5E770B5002425A0FFF7EDFF85B2CE
:1029B0002A4623A1204600F061F8C4B222A0FFF706
:1029C000E3FF85B22A4620A1204600F057F8C4B2A2
:1029D00022A0FFF7D9FF85B22A4620A1204600F0A9
:1029E0004DF8C4B21FA0FFF7CFFF85B22A461DA144
:1029F000204600F043F8C4B21CA0FFF7C5FF85B223
:102A00002A461AA1204600F039F8C4B219A0FFF7EF
:102A1000BBFF85B22A4617A1204600F02FF8C4B2AA
:102A200015A0FFF7B1FF85B22A4613A1204600F09A
:102A300025F8C4B222460321012000F095F970BDAB
:102A40007B2270223A22000061356F6D706E703506
:102A500077736F6A38616D7100000000222C227656
:102A6000223A2200312E302E30000000222C226D1E
:102A7000223A0000320000007D0000002DE9F04104
:102A800004460E461546064807192A46314638467A
:102A9000FFF758FF601984B22046BDE8F0810000BE
:102AA0007C020020024B1A181170431C98B2704728
:102AB0007C0200200B4909680B4A126891420FD032
:102AC00008490A6809498A4202D31739054A116040
:102AD00004490968087803490968491C014A1160DA
:102AE00070470000480000204400002076020020CB
:102AF00012490968124A1268891A01291CD0104922
:102B000009680E4A1268914206D90D4909680B4AB4
:102B10001268891A17290FD209490A6809498A4295
:102B200002D31739064A116005490968087004493B
:102B30000968491C024A11607047000048000020E3
:102B4000440000207602002010B5044621460548C6
:102B5000FFF735F900BF40210248FFF763F800286E
:102B6000F9D010BD0048004010B586B004460121E0
:102B70000920FEF77BFD01218804FEF757FD24485C
:102B8000FFF702F84FF48060ADF8100003208DF8D5
:102B9000120018208DF8130004A91E48FDF746FE08
:102BA0004FF40060ADF8100004208DF8130004A964
:102BB0001848FDF73BFE00940020ADF80400ADF886
:102BC0000600ADF80800ADF80C000C20ADF80A00C6
:102BD00069460F48FFF782F801210D48FEF7C8FF4C
:102BE000012240F225510A48FFF753F827208DF8BB
:102BF000140002208DF8150003208DF81600012026
:102C00008DF8170005A8FEF7FDFA06B010BD00000C
:102C100000480040000C014005480649086006498C
:102C20000860002005490870FF20054908707047BA
:102C30005F02002044000020480000204C000020DB
:102C40004F00002008B901B100BF704770B50024E3
:102C5000002509E0FFF72EFF38490A880988491C3A
:102C6000364B198036498854344800881F2803D2CF
:102C700000F0C4F80028EDDC30480088072800DAAE
:102C800070BD42E02E48005D552802D0601C84B221
:102C90003BE02B49601C085CAA2802D0601C84B26F
:102CA00033E02749A01C085C10B1A01C84B22CE0C2
:102CB0002349201D085C4FF6FF7101EA00252049D9
:102CC000601D085CC01D284485B2262D02D9E01C79
:102CD00084B21AE019480088001BA84200DA19E003
:102CE0006A1E91B2164A1019FFF750FB6119491E6E
:102CF000134A515C884202D0E01C84B205E02046B1
:102D0000FFF7D0F8601984B200BF0C480088001BA0
:102D10000728B7DA00BF09480088001B0749088068
:102D200008460088002806DD054801190348028886
:102D30000348FFF707FE00BFA2E7000036000020AF
:102D40004002002070B504460D4604B105B970BDBF
:102D500003E02078FFF7F8FE641C2800A5F10101CC
:102D60008DB2F6D100BFF2E72DE9F04105460E46DF
:102D70001446002755200D490870AA2048700846BF
:102D80008670C570201208714C71E01D84B2601EFF
:102D900081B20648FFF7FAFA0746601E03490F544E
:102DA00021460248FFF7CEFFBDE8F0817602002001
:102DB000FEB506463746002415E007F00F050A2D3C
:102DC00007DA05F13000C0B2C4F107010DF80100C7
:102DD00006E005F13700C0B2C4F107010DF80100AB
:102DE0003F09601CC4B2082CE7DB00208DF8080006
:102DF000082269466720FFF71FFDFEBD04480068F2
:102E000004490968884201D0012070470020FCE78E
:102E100044000020480000200000000000000000E6
:102E20000000000000000000000038FCFC3800003A
:102E30000000000D0D000000000E1E00001E0E0020
:102E4000000000000000000020F8F820F8F8200042
:102E5000020F0F020F0F0200387C444747CC980046
:102E60000306041C1C07030030300080C0603000E3
:102E70000C060301000C0C0080D87CE4BCD8400098
:102E8000070F0808070F080000101E0E00000000C2
:102E900000000000000000000000F0F80C0400003A
:102EA000000003070C0800000000040CF8F000000C
:102EB0000000080C0703000080A0E0C0C0E0A08074
:102EC0000002030101030200008080E0E080800036
:102ED00000000003030000000000000000000000EC
:102EE0000000101E0E000000808080808080800026
:102EF00000000000000000000000000000000000D2
:102F00000000000C0C00000000000080C0603000D9
:102F10000C06030100000000F8FC04C424FCF800C7
:102F2000070F0908080F0700001018FCFC0000003C
:102F30000008080F0F080800080C84C4643C18003F
:102F40000E0F0908080C0C00080C444444FCB8009F
:102F5000040C0808080F0700C0E0B098FCFC8000D3
:102F6000000000080F0F08007C7C4444C4C48400A7
:102F7000040C0808080F0700F0F84C4444C0800017
:102F8000070F0808080F07000C0C0484C47C3C00E1
:102F900000000F0F00000000B8FC444444FCB800DF
:102FA000070F0808080F0700387C444444FCF80069
:102FB000000808080C070300000000303000000083
:102FC0000000000606000000000000303000000095
:102FD0000000080E060000000080C06030180800E5
:102FE00000000103060C0800404040404040400003
:102FF00002020202020202000008183060C08000D3
:1030000000080C0603010000181C04C4E43C18006E
:103010000000000D0D000000F0F808C8C8F8F0002E
:10302000070F080B0B0B0100E0F0988C98F0E00004
:103030000F0F0000000F0F0004FCFC4444FCB8001C
:10304000080F0F08080F0700F0F80C04040C180014
:1030500003070C08080C060004FCFC040CF8F00044
:10306000080F0F080C07030004FCFC44E40C1C00D0
:10307000080F0F08080C0E0004FCFC44E40C1C00B4
:10308000080F0F0800000000F0F80C84848C9800F2
:1030900003070C0808070F00FCFC404040FCFC0044
:1030A0000F0F0000000F0F00000004FCFC040000E4
:1030B0000000080F0F08000000000004FCFC0400E2
:1030C000070F08080F07000004FCFCC0F03C0C00D0
:1030D000080F0F00010F0E0004FCFC0400000000AC
:1030E000080F0F08080C0E00FCFC387038FCFC00C0
:1030F0000F0F0000000F0F00FCFC3870E0FCFC001C
:103100000F0F0000000F0F00F0F80C040CF8F00097
:1031100003070C080C07030004FCFC44447C380043
:10312000080F0F0800000000F8FC040404FCF8007D
:10313000070F080E3C3F270004FCFC44C4FC380089
:10314000080F0F00000F0F00183C6444C49C1800C7
:10315000060E0808080F0700001C0CFCFC0C1C00E5
:103160000000080F0F080000FCFC000000FCFC0041
:10317000070F0808080F0700FCFC000000FCFC001B
:103180000103060C06030100FCFC008000FCFC00AF
:10319000030F0E030E0F03000C3CF0C0F03C0C00BC
:1031A0000C0F0300030F0C00003C7CC0C07C3C00F3
:1031B0000000080F0F0800001C0C84C4643C1C00B5
:1031C0000E0F0908080C0E000000FCFC04040000AF
:1031D00000000F0F080800003870E0C080000000F9
:1031E0000000000103070E0000000404FCFC0000C6
:1031F000000008080F0F0000080C0603060C08006A
:1032000000000000000000000000000000000000BE
:1032100020202020202020200000030704000000A0
:10322000000000000000000000A0A0A0E0C000001E
:10323000070F0808070F080004FCFC2060C080008E
:10324000080F0708080F0700C0E02020206040009A
:10325000070F0808080C040080C06024FCFC000074
:10326000070F0808070F0800C0E0A0A0A0E0C000FA
:10327000070F0808080C040040F8FC440C18000074
:10328000080F0F0800000000C0E02020C0E0200070
:10329000276F48487F3F000004FCFC4020E0C0004E
:1032A000080F0F00000F0F00000020ECEC000000E2
:1032B0000000080F0F0800000000000020ECEC00E8
:1032C00000307040407F3F0004FCFC80C060200064
:1032D000080F0F01030E0C00000004FCFC000000AE
:1032E0000000080F0F080000E0E060C060E0C000D0
:1032F0000F0F000F000F0F0020E0C02020E0C000E3
:10330000000F0F00000F0F00C0E0202020E0C000E1
:10331000070F0808080F070020E0C02020E0C000C9
:10332000407F7F48080F0700C0E02020C0E0200059
:10333000070F08487F7F400020E0C0602060C00089
:10334000080F0F080000000040E0A02020604000AF
:10335000040C09090B0E04002020F8FC20200000BA
:103360000000070F080C0400E0E00000E0E00000AF
:10337000070F0808070F080000E0E00000E0E00089
:103380000003070C0C070300E0E0000000E0E00091
:10339000070F0C070C0F07002060C080C0602000E2
:1033A000080C0703070C0800E0E0000000E0E00064
:1033B000474F4848683F1F00606020A0E060200041
:1033C0000C0E0B09080C0C00004040F8BC04040073
:1033D000000000070F080800000000BCBC0000004F
:1033E0000000000F0F000000000404BCF840400083
:1033F0000008080F07000000080C040C080C04006B
:10340000000000000000000080C0603060C080004C
:103410000707040404070700807000FF1022F292DF
:1034200092929292FB120000000000FF20202724BD
:1034300024242424273020001022640C8000FE92D3
:1034400092929292FF0200000404FE01407E4242EA
:103450007E427E42427E400000022222322EA26242
:103460002222910901000000000042221A43827EBC
:1034700002020A13660000002030AC633088C8A83E
:10348000998E88A8CC880000226722129240300FC3
:1034900000003F40404170000000000000001C227E
:1034A00022221C00000000000000000000000000BC
:1034B000000000000000000004242424243FE42431
:1034C000243F2424F4260400000000000000FF0034
:1034D000000408100F00000010D8545350DC3000D6
:1034E0007F90888486E0000000FF0949897F000002
:1034F0007E9088848680E0000000000000000000CC
:1035000000000000000000000000000000000000BB
:1035100000000000000000000000000000000000AB
:10352000000000000000000000000000000000009B
:10353000000000000000000000000000000000008B
:10354000000000000000000000000000000000007B
:10355000000000000000000000000000000000006B
:10356000000000000000000000000000000000005B
:10357000000000000000000000000000000000004B
:10358000000000000000000000000000000000003B
:1035900000F8FC1C3830381CFCF800F8F800F8F88B
:1035A000000000F8FC8C8C8C0080D050F0E000F023
:1035B000F020300000808000808000808000000CBF
:1035C0001224120C00000000000000008000000027
:1035D0000000000018244488442418000000000063
:1035E00000000000000000000000000000000000DB
:1035F00000000000000000000000000000000000CB
:1036000000000000000000000000000000000000BA
:103610000003838000808000030300080B0B0F076A
:10362000804080408303030300000303030300037F
:103630008380808080C3C3C0C3C3C0C3C3C0C0C0B5
:10364000C0C0808080C0C04020180403000000007B
:10365000002050A0502000000000000000000000EA
:10366000000000000000000000000000000000005A
:10367000000000000000000000000000000000004A
:10368000000000000000000000000000000000003A
:1036900000030408110804030000000000000000FB
:1036A000010284C2E160301078ECFCF63A1B05851B
:1036B00097131213131111111111110181FFF9F94F
:1036C000F2C2822225058D8B93B3E6C68C1C183876
:1036D0007070E0C08000000000000018244824182A
:1036E00000000000000000000000000000000000DA
:1036F00000000000000000000000000000000000CA
:1037000000000000000000000000000000000000B9
:10371000000080E0E0703018181C1C1C0C1C1616F1
:10372000160627636DAECE0E0E0F0F0F0E060607A0
:10373000070606060606060606060666776767E7B4
:10374000070707060606070787C767232312100027
:103750000808090B0F0E0E0C3C70F0C08000000032
:103760000000000000000000000000000000000059
:103770000000000000000000000000000000000049
:103780000000000000000000000000000000F0F851
:10379000DEFFF63611E0F0F8FCFEDE1E3F3F1EFEB7
:1037A000FEFCF8F2E4080107FC0000000000000045
:1037B000000000000000000000000000000000FF0A
:1037C00000000000003CFFE7311CE6FFFFFFFEFEAB
:1037D0001F3F3F1FFFFEFEFCF8F8F031FBFFFEFC31
:1037E00038000000000000000000000000000000A1
:1037F00000000000000000000000000000000000C9
:1038000000000000000000000000000000000003B5
:10381000074F4C60607F7F7F7F7D4D44727240799F
:103820007D7F7F7F7F7C707073737070747474742D
:10383000747474747474747476767676767676733B
:103840007070727272737070707C7F7F7F7F7D7D0D
:1038500062727260687D7F7F7F7F777467676300C5
:103860000000000000000000000000000000000058
:103870000000000000000000000000000000000048
:103880000000000000000000000000000000000038
:103890000000000000000000000000000000000028
:1038A0000000000000000000000000000000000018
:1038B0000000000000000000000000000000000008
:1038C00000000000000000000000000000000000F8
:1038D00000000000000000000000000000000000E8
:1038E00000000000000000000000000000000000D8
:1038F0000000000000000000010202020A020B02A8
:103900000C020D02650166036703680269046A011F
:103910006B016C01343900080000002060000000D9
:103920002801000894390008600000207809000090
:103930004401000800A24A0400000000000000004A
:103940000102030406070809000000000102030445
:10395000010203040607080902040608000000002B
:103960000000000000000000000000000000F40162
:1039700064005A0014000000000000000000000075
:103980000000000000000000000000000000000037
:043990000000000033
:040000050800018965
:00000001FF
